:020000040800F2
:10000000D0250020450100089D3300084D28000838
:10001000ED31000869170008FF40000800000000EB
:10002000000000000000000000000000F53500089E
:10003000411E00080000000025340008E1360008D9
:100040005F0100085F0100085F0100085F01000810
:100050005F0100085F0100085F0100085F01000800
:100060005F0100085F0100085F0100085F010008F0
:100070006D1700085F010008991700085F0100086C
:100080005F010008C91700085F0100085F01000850
:100090005F0100085F0100085F0100085F010008C0
:1000A0005F0100085F0100085F0100085F010008B0
:1000B0005F0100085F0100085F0100085F010008A0
:1000C0005F0100085F0100085F0100085F01000890
:1000D0005F01000839390008A53B00080D3E000803
:1000E0005F0100085F0100085F0100085F01000870
:1000F0005F0100085F0100085F0100085F01000860
:100100005F0100085F0100085F0100085F0100084F
:100110005F0100085F0100085F0100085F0100083F
:100120005F0100085F0100085F0100085F0100082F
:10013000DFF80CD000F032FD004800470B590008F2
:10014000D02500200648804706480047FEE7FEE726
:10015000FEE7FEE7FEE7FEE7FEE7FEE7FEE7FEE777
:100160008D3700083101000840EA01039B0703D0E6
:1001700009E008C9121F08C0042AFAD203E011F8E6
:10018000013B00F8013B521EF9D27047D2B201E0A8
:1001900000F8012B491EFBD270470022F6E710B58C
:1001A00013460A4604461946FFF7F0FF204610BDE5
:1001B000421E12F8013F002BFBD111F8013B02F85F
:1001C000013B002BF9D1704730B505462A460B4656
:1001D00012F8010B13F8014B08B1A042F8D01CB182
:1001E000002802D06D1CF1E7284630BD10B504464A
:1001F00004E00B7800F8013B03B1491C521EF8D211
:10020000204610BD421C10F8011B0029FBD1801AAA
:10021000704710B5002200E0521C835C8C5CA34246
:1002200001D1002BF8D1D8B2E1B2401A10BD03467B
:1002300011F8012B00F8012B002AF9D1184670475C
:100240000FB400B58DB010A909900B9000914FF03C
:10025000FF300A9000200C90054806900548079052
:100260006A4609A80F9900F0B7FA0DB05DF814FBC3
:10027000F5070008130800082DE9FF4F087883B040
:100280009946FF2805D0491C2D2804D000240020C1
:1002900008E000200BE00124F9E700EB800003EB0D
:1002A0004000491C0B78FF2BF7D104B140420023DA
:1002B0000293147819461D462D2C01D02B2C04D105
:1002C000521C2D2C13D000240294AA461478FF2C23
:1002D0000FD00A25A3FB057801FB05814FF0000C28
:1002E00003FB0C11521CE3194AEB0101EEE7012458
:1002F000EAE7814453EA010002D019F5C87F06DA23
:1003000003980021C0E9001107B0BDE8F08F002577
:10031000AE4E2F46DFF8B882184600F0FEFBCDE95E
:100320000001B9F1000002DAC9F1000400E004465E
:100330000023A74A1AEB030B42EB045A12E0E00732
:1003400007D02A4633463846414600F045F907466D
:1003500088462A4633461046194600F03DF90546C0
:100360000E466410002CEAD1DDE90001B9F1000F5E
:100370005A46534606DA00F061FB3A46434600F01F
:100380005DFB05E000F028F93A46434600F024F909
:10039000029A0AB181F00041039AC2E90001B3E771
:1003A0002DE9FF4F1F468DB0D7E901464FF0FF38CA
:1003B0002E2045464FF000090B90B9696D1C0E9830
:1003C0008847396A824688470028F6D1BAF1FF3F4C
:1003D0000AD024F4D064002E11DDBAF12B0F08D01E
:1003E000BAF12D0F0BD102E0404611B08DE744F475
:1003F0008064B9696D1C0E9888478246761E6946EE
:10040000600501D52D2000E02B208DF8000001F1C2
:10041000010B0DF1200809E0B9696D1C0E988847A1
:1004200082460F9844F40074761E0560002E02DDAB
:10043000BAF1300FF0D00B998A453ED144F08004D8
:1004400006E00F99681CA9F1010944F400740860E2
:10045000B9696D1C761E0E98884782463028F0D008
:100460002BE00B998A4505D1200603D444F0800483
:10047000761E18E0504604F00FFD08B30DF113018D
:10048000761E44F400748B4508D2AAF130000BF8B4
:10049000010B200607D5A9F1010003E0200602D4D4
:1004A00009F101008146A00502D50F99681C08607A
:1004B000B9696D1C0E9888478246002ED1DC53E046
:1004C000002E51DDBAF1650F02D0BAF1450F4BD1C4
:1004D000A00549D5B9696D1C24F44074761E0E98A8
:1004E00088478246002E0CDD2B2804D0BAF12D0F50
:1004F00007D144F48074B9696D1C0E988847824610
:10050000761EE00501D52D2100E02B2108F8011B06
:10051000CDF82C8021E00DF12901761E44F4007401
:1005200088450CD2AAF1300010F0FF0088F80000D6
:1005300002D10B99884509D908F1010806E0E005C8
:1005400001D5244801E042F20F708146B9696D1C63
:100550000E98884782460F980560002E04DD5046AD
:1005600004F09AFC0028D6D1F9690E988847FF203C
:100570008BF8000088F800000020069007904B469A
:100580006A4608A906A8FFF777FEA00502D46FF017
:1005900001002AE714F0240F0AD0E00714D1DDE9A6
:1005A00006123868031D3B600068C0E900120BE0CA
:1005B000DDE9060100F0D5FA0146E00704D138680C
:1005C000021D3A600068016028460EE700001440F2
:1005D0000000F03FF1D8FFFF2DE9FE4F81EA030450
:1005E00004F0004421F0004100944FF0000B23F090
:1005F000004350EA01045ED052EA03045BD0C3F327
:100600000A54C1F30A552C44A4F2F3340194A0FB1C
:100610000254C1F3130141F48011C3F3130343F4F3
:10062000801301FB024400FB034E840A970A44EA4C
:10063000815447EA8357A4FB076802958D0A05FB9E
:1006400007854FEA932C04FB0C542705029D4FEAC3
:10065000065847EA1637B5EB08056EEB070C870E10
:10066000920E47EA811742EA8312A7FB0201B6EB1A
:100670000B0164EB00042B0D43EA0C335E1844EBD2
:100680001C50DA465146E7FB0201C5F313044FEA5A
:100690000B3343EA14534FEA0432019C43EA060346
:1006A000A4F10C040294009CCDE900B400F0D1F850
:1006B00003B0BDE8F08F00200146F9E730B5041E15
:1006C00071F1000404DB4FF00044404264EB01018F
:1006D000141E73F1000405DB1C464FF00043524228
:1006E00063EB04038B4208BF824230BD30B5041E69
:1006F00071F1000404DB4FF00044404264EB01015F
:10070000141E73F1000405DB1C464FF000435242F7
:1007100063EB0403994208BF904230BD30B50B46ED
:10072000014600202022012409E021FA02F59D4221
:1007300005D303FA02F5491B04FA02F52844151EF5
:10074000A2F10102F1DC30BD2DE9F05F0546002089
:1007500092469B4688460646814640241BE0284632
:1007600041464746224600F020F853465A46C01AF2
:10077000914110D311461846224600F021FA2D1A55
:1007800067EB01084F4622460120002100F018FACD
:1007900017EB00094E41201EA4F10104DFDC48469E
:1007A00031462A464346BDE8F09F202A04DB203A22
:1007B00021FA02F00021704721FA02F3D040C2F181
:1007C0002002914008431946704700000268114416
:1007D0001378016018467047D1600449516104499B
:1007E000116200211161114600F010BACD07000816
:1007F000030C0008426842B1016811F8013B23B1C3
:10080000521EC0E90012184670470121C160881EBF
:10081000704742685AB1C368016843B983688B4224
:1008200005D0491E521CC0E90012002070474FF04D
:10083000FF30704710B5141E73F1000408DA401C35
:1008400041F1000192185B411A4301D120F00100EF
:1008500010BD2DE9F04D92469B4611B1B1FA81F2DF
:1008600002E0B0FA80F22032904600F0A9F9044686
:100870000F4640EA0A0041EA0B0153465A46084334
:1008800013D0114653EA010019D0C8F14002504676
:10089000FFF78BFF05460E4650465946424600F08C
:1008A0008FF9084305D0012004E020463946BDE811
:1008B000F08D0020054346EAE0762C4337430A9842
:1008C0006305E40AA0EB08000022FD0A44EA47544D
:1008D0000A3002D500200146E9E7010510196941F7
:1008E000DDE9084500196941BDE8F04DA2E72DE9B1
:1008F000FE4F804681EA0300C00F0C46009021F0B5
:10090000004123F00045B8EB0200A94105D2404662
:10091000214690461C460B46024623F000401043F9
:1009200047D0270DC7F30A00C3F30A510290401ABB
:10093000019040286BDAC3F3130040F4801B009849
:10094000924620B10023D2EB030A63EB0B0B019814
:100950005946C0F14002504600F032F906460D46B5
:1009600050465946019A00F03AF910EB08006141EF
:10097000002487EA115284EAE7731A4340D0009AB0
:1009800062B3019A012A4FEA075215DC001B61EBA2
:1009900002014FF0004202EA0752CDE90042001C7A
:1009A00041F5801132462B46FFF753FF03B0BDE8F7
:1009B000F08F40462146F9E7001B61EB0201001C65
:1009C00041F5801300185B412018A2F5001747EB92
:1009D000030140EAD570B6196D4111E06D084FEA88
:1009E000360645EAC0754FEA0752001B61EB02016B
:1009F000001C41F5801149084FEA300000195141AF
:100A000032462B4603B0BDE8F04FFFF713BF009806
:100A1000012240000023D0EB020263EBE073009858
:100A200021464FEAE074B8EB000061EB0401E9E70E
:100A300083F000435BE781F0004158E72DE9F04D7A
:100A400081EA030404F0004B21F0004514464FF006
:100A5000000A23F0004150EA050220D054EA0102C6
:100A60001DD0C5F30A570246C5F31303C1F31300A3
:100A7000C1F30A5640F4801543F48013A7EB06082F
:100A8000101BD64608F2FD3873EB050002D308F1BF
:100A9000010801E092185B41B8F1000F03DA002071
:100AA0000146BDE8F08D00204FF4801106468446D3
:100AB0000EE0171B73EB050705D3121B63EB050351
:100AC00006434CEA010C49084FEA300092185B419A
:100AD00050EA0107EDD152EA030012D082EA040085
:100AE00083EA0501084305D0101BAB4106D2012261
:100AF000002306E000224FF0004302E06FF0010205
:100B000053101AEB06004CEB085110EB0A0041EBB6
:100B10000B01BDE8F04DFFF78DBE0EB540F233423C
:100B200002920022CDE900221346FFF792FE03B0A5
:100B300000BDC1F30A52C1F3130140F2FF3341F487
:100B400080119A4202DA00200146704740F2334396
:100B50009A42A2F2334202DC5242FFF726BE00F074
:100B60002FB801F0004330B421F0004150EA0102F7
:100B700006D00A0DA2F56072C1F31301002A02DC4F
:100B800030BC00207047440F44EAC104C100E018A3
:100B900030BC00EBC25000F0CFB90000064C074D4E
:100BA00006E0E06840F0010394E80700984710343D
:100BB000AC42F6D3FFF7C0FAAC600008CC60000886
:100BC000202A04DB203A00FA02F10020704791400D
:100BD000C2F1200320FA03F3194390407047202A02
:100BE00006DBCB17203A41FA02F043EAE07306E055
:100BF00041FA02F3D040C2F1200291400843194665
:100C00007047C0B24FF4F05100F0CEB92DE9F34F68
:100C10008BB04FF0000801F10C000C464FF0010BB7
:100C200046460DF1080A019062690121019890473A
:100C3000051E2DD0252D2CD0216A8847C0B16269B0
:100C4000012101989047216A88470028F7D1411E69
:100C500062690198904700E0761CA1690B9888476B
:100C6000216A88470028F7D1E1690B988847DBE7BC
:100C7000A1690B9888470746A84201D1761CD3E7A3
:100C8000E1690B9888477F1C02D1B8F1000F6FD043
:100C900046E1002762693D463946019890472A2877
:100CA00004D162690121019890470125DFF88492FF
:100CB0006269012101989047A0F130010A290AD206
:100CC0004F45E5DC07EB870100EB4107303FDFD400
:100CD00045F01005ECE7E90601D46FF000476C28F9
:100CE0000AD04C2814D0682815D06A280DD0742852
:100CF0001CD07A281AD01DE0626901210198904722
:100D00006C2802D045F0040514E045F002050DE022
:100D100045F020050AE062690121019890476828A2
:100D200002D045F0080505E045F40065626901213F
:100D300001989047C4E9015765283DD019DC58282F
:100D40007AD00CDC452837D004DC252826D0412871
:100D500031D131E046282FD047282CD12CE05B2818
:100D600077D0612828D063287CD0642823D15AE02A
:100D7000D0E06F2848D008DC66281DD067281BD03B
:100D8000692821D06E2816D127E0702845D0732815
:100D900068D0752847D078280DD14DE0A1690B980F
:100DA0008847054625283FF469AFE1690B988847D5
:100DB0006D1C3FF46AAFB3E023466A466FF0010052
:100DC0000B99FFF7EDFA9EE045F040006060A80740
:100DD00023464FF0000236D43EE0E8077FF447AFE9
:100DE0002068011D21600068290501D506701BE7F8
:100DF000290701D5068017E7A90703D5F117C0E930
:100E0000006111E706600FE745F040006060A80749
:100E100023464FF0080216D41EE040F60E0125EAE4
:100E20000100606016E045F040006060A8072346BE
:100E30004FF00A0207D40FE045F040006060A807B9
:100E400008D5234610226FF001000B99AFF3008004
:100E500059E007E0234610226FF001000B99AFF331
:100E6000008050E04FF000094F464B46632802D007
:100E70005B2806D040E0E80601D40120A0600127ED
:100E80003AE062690121019890475E2805D14FF050
:100E900001096269494601989047216939B90021E1
:100EA0000A46534643F82120491C0829FADBB0B30F
:100EB000216969B9C11700EBD16253110AEB8301B3
:100EC00022F01F02821A01200B68904003430B603E
:100ED00062690121019890475D28E8D1B9F1000FBE
:100EE00009D00020514651F82020D24341F820205B
:100EF000401C0828F7DB02AB224600976FF0010088
:100F00000B99AFF3008000280CDA401C08D1BBF12C
:100F1000000F05D04FF0FF300DB0BDE8F08FFFE7B8
:100F20004046F9E7E90701D108F1010806444FF00E
:100F3000000B79E6CCCCCC0C0029A8BF7047401C34
:100F4000490008BF20F00100704710B4B0FA80FCDF
:100F500000FA0CF050EA010404BF10BC704749B11C
:100F6000CCF1200421FA04F411FA0CF118BF01218C
:100F700021430843A3EB0C01CB1D4FEA00614FEA6C
:100F8000102042BF002010BC704700EBC35010443B
:100F90000029A4BF10BC7047401C490008BF20F0C6
:100FA000010010BC704700007F2801D9002208E032
:100FB000064A02EB5002C007127800D1120902F073
:100FC0000F02012090400840704700001A6000089E
:100FD00070B594B004460D4616460020139040218B
:100FE00003A8FFF7DAF80020029002A803AB13AAC7
:100FF00031460090284600F07DFB9DF84C0010B172
:1010000007281AD112E09DF80C0010B90120A07039
:101010000BE09DF80C00012807D10220A07043F2DC
:10102000C8220321201D02F02CF807E09DF80820BB
:1010300003A9204600F0B2FA00E000BF00BF14B0E0
:1010400070BD00002DE9F04198B004464FF0000853
:101050002546182112A8FFF7A0F8002600274021F6
:1010600002A8FFF79AF80020019001AA0121686AFE
:1010700001F0BEFC9DF80400F22802D018B0BDE8D3
:10108000F08104F019FB064606B9F7E718A219A18A
:10109000304604F0F7FA19A112A8FFF7C8F81AA110
:1010A00012A8FFF785F812AA19A1304604F0EAFA4F
:1010B000304604F061FB0746394602A8FFF7B7F84F
:1010C00015A102A8FFF774F8304604F01BFB0026B8
:1010D00002A8FFF797F800F0FF08424602A9686AE5
:1010E00001F003FD384603F0AFFD002700BFC5E760
:1010F0003000000074797065000000004A50303103
:1011000030303031000000003A3939390000000039
:101110006D754964000000000D0A000030B589B00B
:101120000446182103A8FFF738F800200290019028
:10113000254602A803AB002201A90090104600F04A
:10114000E8F99DF8082003A9A86A01F0CEFC09B0CF
:1011500030BD000010B5044600BF14B94FF0FF3099
:1011600010BD00BF0121054801F0C1FE0923224640
:101170000121024801F09FFEF2E700007800002004
:1011800010B500BF0CA10E4801F075FE10B14FF074
:10119000FF3010BD00BF00BF0923012211460848DF
:1011A00001F03CFE10B14FF0FF30F2E700BF044801
:1011B00001F05BFE0020ECE7464C41534800000084
:1011C000780000200EB500200090019002900120D0
:1011D0008DF80800072207A16846FFF707F80121EC
:1011E000074801F084FE09236A460121044801F002
:1011F00096FE0EBD3031303230303031000000000C
:101200007800002010B5044600BF14B94FF0FF303D
:1012100010BD00BF0121054801F069FE09232246E7
:101220000121024801F07BFEF2E700007800002077
:1012300070B50446002500BF04B970BD00BF254647
:10124000281D01F049FFE86901F047FB286901F01A
:1012500044FB686901F041FBA86901F03EFBE868C6
:1012600001F03BFB686A01F038FBA86A01F035FB2E
:1012700001F04EFB204603F0E7FC002400BFDCE752
:101280000EB56846FFF766FFB0F1FF3F01D1FFF7EB
:1012900099FF0EBD30B589B00546002447A103A8CB
:1012A000FEF7C5FF00BF15B9601E09B030BD00BF15
:1012B00000BF01F042FB10B14FF0FF30F5E700BF77
:1012C00000BFFFF75DFF10B14FF0FF30EDE700BF4B
:1012D00000F0D2FDFFF7D4FF03A8FFF793FF06A8A5
:1012E000FFF738FF012000F08BF8C82003F0DAFC8C
:1012F000044600BF14B94FF0FF30D6E700BFC82145
:101300002046FEF74AFF642084F8AC0000202070DD
:101310002CA001F08EFB20612CA001F08AFBE06084
:101320002BA001F086FBA0612CA001F082FBE06104
:101330002BA001F07EFB60622AA001F07AFBA06284
:10134000201D01F094FE00206070A070284B024622
:101350000121CDE90004201D01F03DFE4FF47A7219
:101360000121201D01F08DFE0020224B02460221AA
:10137000CDE90004201D01F02EFE42F21072022180
:10138000201D01F07EFE00201B4B02460321CDE90B
:101390000004201D01F01FFE0020184B024604210E
:1013A000CDE90004201D01F016FE43F69822042129
:1013B000201D01F066FE2C60002076E731323334C8
:1013C000350000004770696F00000000544D500068
:1013D0005052455353555245000000004E455400AD
:1013E00047505300424C455F4D45534800000000B4
:1013F000E54B00081D110008451000084542000893
:101400003EB504466846FFF7A5FE9DF80800A042D9
:1014100006D0FFF7B5FE8DF808406846FFF7F2FEEC
:101420003EBD000070B50446002500BF04B970BD84
:1014300000BF254606A003F0E3FB04E001F051FBEA
:10144000284600F00BF868780028F7D000BFEEE7D8
:1014500068656C6C6F20776F72640A0030B5C3B03A
:101460000446002042904FF4807102A8FEF795FEDA
:1014700000250020019042A801F050FA201D429959
:1014800001F069FDE06901F0F1FA60B94FF4807193
:1014900002A8FEF782FE4FF4807202A9E06901F013
:1014A00000FB054600BF606A01F0E0FAC0B94FF4E6
:1014B000807102A8FEF771FE4FF4807202A9606A83
:1014C00001F0EFFA0546002D0ADD2A4602A904F1D3
:1014D0002C00FEF749FE00220221606A01F088FA22
:1014E000A06A01F0C3FA90B94FF4807102A8FEF728
:1014F00054FE4FF4807202A9A06A01F0D2FA0546A8
:10150000002D04DDEAB202A92046FFF761FD43B0D9
:1015100030BD2DE9F84306460F4615461C46DDF85A
:1015200020800020009081466946204601F0CCF9D9
:101530009DF8000026549DF80000401CC0B20090A9
:10154000280A9DF8001060549DF80000401C2554A6
:101550009DF80000801CC0B200909DF8001060183B
:101560002A463946FEF700FE9DF800002844C0B226
:1015700000909DF80010204600F024FE81469DF862
:10158000000004F800909DF80000401CC0B20090DC
:101590009DF8000088F80000BDE8F8832DE9F043CD
:1015A000ABB004460D469046182125A8FEF7F5FD80
:1015B00000260020249023900027802103A8FEF716
:1015C000ECFD00200290019002AA0121606A01F066
:1015D0000FFA9DF80800F22803D0701E2BB0BDE86A
:1015E000F08304F069F8064616B94FF0FF30F5E7CE
:1015F0002DA22EA1304604F045F82A782DA123A86B
:1016000003F00EFB2CA125A8FEF711FE2DA125A8A5
:10161000FEF7CEFD23A925A8FEF7CAFD25AA2AA11B
:10162000304604F02FF8687828B11FA228A1304670
:1016300004F028F804E028A225A1304604F022F89E
:10164000EA781CA124A803F0EBFA24AA23A13046CF
:1016500004F018F894F8AC2016A101A803F0E0FA01
:1016600001AA21A1304604F00DF8304604F084F8B8
:101670000746394603A8FEF7DAFD1DA103A8FEF7C9
:1016800097FD03A8FEF7BEFD81464A4603A9606A9E
:1016900001F02BFA304604F035F8384603F0D4FA5E
:1016A00000270026002099E730000000747970655B
:1016B00000000000256400004A50303130303031E5
:1016C000000000003A0000006D7549640000000051
:1016D0007374617475730000310000006D6F76657E
:1016E000436F756E740000006261747465727900F6
:1016F0000D0A00002DE9F04704460D4616461F4628
:10170000DDF820804FF000092078552802D160785C
:10171000AA2803D04FF0FF30BDE8F087A07810B1C1
:101720004FF0FF30F8E7681EC1B2204600F04AFDD6
:101730008146681E205C484502D04FF0FF30EBE741
:10174000E07830702079082801DA012000E00020DC
:101750006179084388F8000098F80020A11D3846F8
:10176000FEF702FD0020D7E700BFFEE710B52020FE
:1017700000F006F950B1102000F03EF800210448B6
:1017800000F048F80020034981F8010110BD000075
:101790001C0002401307002010B54FF4005000F069
:1017A000EFF858B14FF4805000F026F800210448BB
:1017B00000F030F80020034981F8010110BD00005D
:1017C000440002400B05002010B54FF0007000F0FF
:1017D000D7F858B14FF0807000F00EF8002104489F
:1017E00000F018F80020034981F8010110BD000045
:1017F000800002400F06002000F0805111B1034923
:10180000086001E00249486070470000040402409B
:101810000000024021B1026842F00102026004E0CF
:1018200002684FF6FE731A400260704701684FF677
:10183000FE72114001600021016041608160C16061
:101840004B49884208D14A490839496841F00F019B
:10185000474A083A51608AE045491431884208D124
:1018600043490839496841F0F001414A083A51605A
:101870007DE03F492831884208D13D49083949680F
:1018800041F470613A4A083A516070E038493C319D
:10189000884208D136490839496841F47041344AD0
:1018A000083A516063E032495031884208D13049EA
:1018B0000839496841F470212D4A083A516056E0D0
:1018C0002B496431884208D129490839496841F4D3
:1018D0007001274A083A516049E025497831884229
:1018E00008D123490839496841F07061204A083A13
:1018F00051603CE01F49884206D1011F096841F050
:101900000F01021F116032E01A491431884208D1D8
:101910001849091F096841F0F001164A121F1160A9
:1019200025E014492831884208D11249091F096865
:1019300041F470610F4A121F116018E00D493C31EB
:10194000884208D10B49091F096841F47041094ACE
:10195000121F11600BE007495031884207D1054939
:10196000091F096841F47021024A121F1160704773
:1019700008000240080402400146486880B27047EF
:1019800001460020002201F0805313B1054B1A6874
:1019900001E0054B1A6802EA01030BB1012000E0E7
:1019A0000020704700040240000002401AB10368A2
:1019B0000B43036002E003688B430360704710B57C
:1019C0000022026847F6F0739A430C6A8B6823433F
:1019D0000C6923434C6923438C692343CC6923431B
:1019E0004C6A23438C6A23431A430260CB684360EA
:1019F0000B6883604B68C36010BD000000B58BB0FE
:101A00000C4801900C4802900C4803900020049070
:101A100005900B48069000200790089009900A90C6
:101A200008A108A8FEF703FC01A801F0D1F80BB04B
:101A300000BD0000511A0008791A0008911A000828
:101A4000691A0008424C455F4D45534800000000AC
:101A500010B501224FF41651024800F0D7F80020CB
:101A600010BD00000038014010B5024800F06AF8CF
:101A700010BD00000038014070B504460D46AAB202
:101A80002146024800F03EF970BD000000380140D8
:101A900070B504460D46EAB22146024800F0A4F9AA
:101AA00070BD00000038014000B58BB00B480190BC
:101AB0000020029003900A4804900A4805900020F4
:101AC00006900790089009900A9007A108A8FEF7D1
:101AD000AEFB01A801F07CF80BB000BDF941000895
:101AE0001941000825410008464C415348000000B8
:101AF00000B58BB00C4801900C4802900C48039044
:101B00000C4804900C4805900C4806900020079063
:101B1000089009900A900AA108A8FEF788FB01A87E
:101B200001F056F80BB000BD2944000881440008BC
:101B3000E9440008E5430008E9430008654400085B
:101B40004750530001461548814209D1144890F886
:101B5000020101281ED10020114A82F802017047BB
:101B60001048814209D1104890F80201012811D192
:101B700000200D4A82F80201F1E70C48814209D1A8
:101B80000B4890F80201012804D10020084A82F88D
:101B90000201E4E74FF0FF30E1E7000000380140C8
:101BA0000B050020004400400F06002000480040C4
:101BB0001307002000B58BB00E4801900E4802902C
:101BC0000E4803900E480490002005900D480690A2
:101BD00000200790089009900A900BA00188ADF8AA
:101BE000201080788DF8220001A800F0F1FF0BB0E2
:101BF00000BD0000B9460008094700087947000801
:101C0000B5460008F54600084E45540070B5044638
:101C10000D4616460C48844204D13146284601F050
:101C2000A9FE0EE00948844204D13146284601F05D
:101C3000D7FF06E00648844203D13146284602F029
:101C400003F9002070BD000000380140004400404E
:101C50000048004000B58BB00C4801900C48029041
:101C6000002003900B4804900B4805900B48069009
:101C700000200790089009900A9009A103C9CDE9B6
:101C8000080101A800F0A4FF0BB000BD3534000826
:101C900041340008273400082D3400083B34000884
:101CA00050524553535552450000000000B58BB0CB
:101CB0000E4801900E480290002003900D480490B9
:101CC0000D4805900D480690002007900890099057
:101CD0000A900BA00188ADF8201080788DF82200C2
:101CE00001A800F075FF0BB000BD0000BB4B000861
:101CF000C34B0008B14B0008B54B0008BF4B0008B0
:101D0000544D500070B505460E46144600BF16B936
:101D10004FF0FF3070BD00BF2D48854219D12D48CE
:101D20000078002851DD2B480278411C3046FEF730
:101D30001BFA80212748401CFEF72FFA254800781F
:101D4000A04201DA23480478002022490870204686
:101D5000E0E7214885421BD120480078002834DD87
:101D60001E480278411C3046FEF7FEF980211B48D0
:101D7000401CFEF712FA19480078A04201DA174811
:101D80000478164804780020144908702046C1E7FA
:101D90001348854219D113480078002815DD1148F1
:101DA0000278411C3046FEF7DFF980210D48401CC7
:101DB000FEF7F3F90B480078A04201DA09480478ED
:101DC0000020084908702046A4E70020A2E7000090
:101DD000003801400B050020004400400F060020A1
:101DE000004800401307002070B504460D46164613
:101DF00000BF15B94FF0FF3070BD00BF0D488442E1
:101E000004D13146284601F00FFDF5E70A48844227
:101E100004D13146284601F03DFEEDE707488442F3
:101E200004D13146284601F069FFE5E74FF0FF3065
:101E3000E2E7000000380140004400400048004054
:101E4000704700001FB54FF4E13000900020ADF85E
:101E50000400ADF80600ADF80800ADF80C000C2049
:101E6000ADF80A00684601F095FB024802F0C8FE92
:101E70001FBD00005C60000808B5084800909DF890
:101E80000000122803D101200549087002E000205B
:101E9000034908700248007808BD000078563412E3
:101EA0001C0000200149C86070470000002002406B
:101EB00030B5044604254FF4302000F06FF8054695
:101EC000042D17D10C48006940F002000A4908614E
:101ED00008464461006940F0400008614FF430203A
:101EE00000F05CF805460448006941F6FD710840C1
:101EF00001490861284630BD0020024004200B49FA
:101F0000C96801F0010109B101200EE00749C96863
:101F100001F0040109B1022007E00449C96801F099
:101F2000100109B1032000E00420704700200240A6
:101F30000348006940F080000149086170470000D3
:101F40000020024070B504460D460426F00200F061
:101F500025F80646042E11D10948006940F0010019
:101F6000074908612580F00200F018F80646044889
:101F7000006941F6FE71084001490861304670BDB4
:101F80000020024002480349486003484860704707
:101F90002301674500200240AB89EFCD00B5024622
:101FA0000423FFF7ABFF034603E0FFF7A7FF034659
:101FB000521E012B01D1002AF7D102B90523184680
:101FC00000BD00002DE9FE4307460C4615461E469F
:101FD000DDF828804FF003090F482844009001964F
:101FE000CDF80880022C02D14FF000090CE0032C40
:101FF00003D0012C01D0042C02D14FF0010903E0E1
:10200000052C01D14FF002096A464946384600F0D6
:10201000EFFCBDE8FE830000FFEF00082DE9F04172
:10202000024600250026002000230024002791F806
:1020300003C00CF00F0591F803C00CF0100CBCF1BC
:10204000000F03D091F802C04CEA050591F800C0DA
:10205000BCF1000F31D0146800202BE04FF0010CD0
:102060000CFA00F3B1F800C00CEA03069E4220D13E
:1020700083004FF00F0C0CFA03F7BC4305FA03FC86
:102080004CEA040491F803C0BCF1280F06D14FF0CC
:10209000010C0CFA00FCC2F814C00AE091F803C06D
:1020A000BCF1480F05D14FF0010C0CFA00FCC2F84E
:1020B00010C0401C0828D1D31460B1F800C0BCF196
:1020C000FF0F34DD546800202EE000F1080C4FF0C3
:1020D000010808FA0CF3B1F800C00CEA03069E42AE
:1020E00021D183004FF00F0C0CFA03F7BC4305FA23
:1020F00003FC4CEA040491F803C0BCF1280F05D19D
:1021000000F1080C08FA0CF8C2F8148091F803C02A
:10211000BCF1480F07D100F1080C4FF0010808FA94
:102120000CF8C2F81080401C0828CED35460BDE8DB
:10213000F0810000F0B50A460023002400210025AC
:1021400000F00046B6F1004F02D11D4EF16901E0EA
:102150001B4E7168C0F3034583B200F44016B6F518
:10216000401F08D121F07061154E766826F0706628
:10217000134F7E6012E000F48016B6F5801F06D182
:10218000032606FA05F4A14341F0706106E0460D0E
:10219000360103FA06F6B14341F0706122B1460DF3
:1021A000360103FA06F6314300F00046B6F1004F5F
:1021B00002D1034EF16101E0014E7160F0BD0000FB
:1021C000000001402DE9F04105460E46002700249D
:1021D00004E0285D3844C7B2601CC4B2B442F8DBE6
:1021E000FFF74AFE3846BDE8F081000010B5012235
:1021F0004FF4E1310148FFF709FD10BD00440040F4
:1022000070B592B0064640216846FDF7C6FF10A89B
:1022100000F0A2FFDDE9101001EB4102C2EBC11199
:1022200000EBC1052C4629A13046FDF7CDFF002863
:1022300048D028A002F0E4FC042128A000F0FAFA1B
:1022400010A800F089FFDDE9100100EB4002C2EBAD
:10225000C01001EBC0052C461AE02248FFF772FCC3
:10226000402269461F48FFF74DFD1FA16846FDF754
:10227000ABFF10B1002012B070BD10A800F06CFFD1
:10228000DDE9101001EB4102C2EBC11100EBC1040A
:10229000601BB0F5FA7FE0D314A13046FDF794FF40
:1022A00028B115A002F0ACFC4FF0FF30E3E710A816
:1022B00000F052FFDDE9101001EB4102C2EBC11149
:1022C00000EBC1044FF0FF30D5E700005245414418
:1022D0005900000072656164790A000041540D0ADA
:1022E00000000000004400404F4B00004E4F2053C0
:1022F000494D20434152440053494D204261640AF4
:102300000000000001490870704700004A000020EA
:102310000149C870704700004A00002070B50646A9
:1023200000250024DE48FFF70DFC4FF4A072DD49C4
:10233000DB48FFF7E7FC00280CDDDB48007848B9F4
:10234000D848FFF75DFF28B9F120FFF7E1FF07202C
:10235000FFF7D8FFD44800781F286FD2DFE800F0DD
:10236000FE10FEFEFE111C273241FE8F9EB1FE7E46
:10237000505F6FFEFEFEFEC0FEFDFEFEFEE4D500D9
:10238000EDE00020C84948700421C8A000F052FACE
:102390000820C5490870E2E00020C34948700621C2
:1023A000C4A000F047FA0820BF490870D7E0002019
:1023B000BD4948700621C1A000F03CFA0820BA4986
:1023C0000870CCE0B8484078012809D10020B6490F
:1023D00048700921BBA000F02DFA0920B24908700D
:1023E000BDE0B1484078012809D10020AE494870CD
:1023F0000A21B7A000F01EFA1020AB490870AEE029
:10240000A9484078012809D10020A74948700C212B
:10241000B2A000F00FFA1120A34908709FE0A24873
:102420004078012809D100209F4948701B21AFA0A6
:1024300000F000FA12209C49087090E08EE09A4863
:102440004078012809D10020974948700E21AEA09C
:1024500000F0F0F90F209449087080E0924840782D
:1024600001280BD1002090494870AB490870282101
:10247000AAA000F0DFF90B208B4908706FE0A64896
:102480000078012809D10020874948700A21AEA0B0
:1024900000F0D0F90D208449087060E0824840784F
:1024A000012803D080480079012809D100207E4905
:1024B00048700A21A7A000F0BDF917207A490870DA
:1024C0004DE079484078012809D1002076494870CC
:1024D0000D21A3A000F0AEF90120734908703EE081
:1024E0007148407801280FD100208B4908706E494F
:1024F000487008710F219EA000F09CF901206A49E4
:102500000870F220FFF704FF29E0674840780128AF
:1025100009D10020644948700C2199A000F08AF983
:102520001D20614908701AE05F484078012812D1E7
:1025300000205D4948700C2195A000F07BF9012036
:10254000594908704FF4A0715648FDF726FE002047
:102550005449A1F8400102E0FFE700E000BF00BFDE
:102560005148C078F12860D18DA14E48FDF72CFE6E
:1025700010B101204C4948708AA14A48FDF724FE59
:1025800018B101206449087080E089A14548FDF731
:102590001BFED0B148A14348FDF716FE0546002DAD
:1025A00074D0002407E0642C03DC3E48005D8449BD
:1025B0000855601CC4B23B482044A842F3D381486C
:1025C000047001208049087060E080A13548FDF763
:1025D000FBFD50B14FF4FA6000F09CFD0720FFF7BF
:1025E00091FE7CA002F00CFB50E07EA12D48FDF78F
:1025F000EBFD00284AD17EA12A48FDF7E5FD38B160
:102600004FF4FA6000F086FD0720FFF77BFE3DE007
:102610007BA12448FDF7D8FDC0B34FF4FA6000F069
:1026200079FD0720FFF76EFE30E01F48C078F228E2
:102630002CD166A11B48FDF7C7FD20B976A119482A
:10264000FDF7C2FD98B1002017494870F120FFF74F
:102650005FFE0720FFF756FE40F6B83000F05AFD47
:1026600003216FA000F0E6F86EA002F0C9FA0D4851
:10267000B0F8402101465248FDF776FD094890F830
:1026800040015049087001204F4908704FF4A07173
:102690000448FDF782FD00200249A1F8400170BD09
:1026A00000440040180800204A00002041540D0A50
:1026B00000000000415445300D0A000041544531EE
:1026C0000D0A000041542B434349440D0A00000009
:1026D00041542B435245473F0D0A000041542B43C0
:1026E000474154543D310D0A0000000041542B4332
:1026F0004744434F4E543D312C224950222C224313
:102700004D4E4554220D0A0041542B43474143543A
:102710003D312C310D0A00005100002041542B4363
:10272000495053544152543D22544350222C223498
:10273000372E39372E3135342E323533222C34347E
:1027400033300D0A0000000041542B4750533D31F7
:102750000D0A000041542B4750533D300D0A000034
:1027600041542B47505352443D31300D0A00000074
:1027700041542B434950544D4F44453D310D0A00BF
:1027800041542B4750534C503D320D0A000000007D
:1027900041542B534C4545503D310D0A000000007B
:1027A0004F4B0000434F4E4E454354204F4B0000CB
:1027B0002B47505352443A24474E474741000000AC
:1027C0005A090020500000204F0000204552524F6F
:1027D00052000000436D64206D6F64652045727285
:1027E0006F720A004E4F2053494D2043415244001E
:1027F000434F4E4E454354204641494C0000000093
:10280000434F4D4D414E44204E4F20524553504F63
:102810004E53452100000000434C4F5345440000F7
:102820002B2B2B004552524F52205443502073659E
:102830006E640A0070B504460D462A4621460248D9
:10284000FFF7D2FA70BD00000044004000BFFEE771
:1028500070B5012080F3108800BF00F045FF1748D5
:1028600000686422B0FBF2F1B1F1807F00D31DE07B
:1028700021F07F40401E4FF0E022506150170F22A0
:10288000002807DA13071D0E0D4B00F00F04241F5C
:102890001D5503E013071C0E0A4B1C5400BF0020FB
:1028A0004FF0E02290610720106100BF002080F30C
:1028B000108800BFFFF7C6FA002070BD340000206A
:1028C00018ED00E000E400E055220270AA224270F8
:1028D0000022827003220A70704770B505462846B0
:1028E00000F0D2F90446002D02DA4FF0FF3070BD3F
:1028F00000BF14B94FF0FF30F9E700BF00BFE06838
:1029000010B94FF0FF30F2E700BFE0688047EEE714
:1029100010B500F099F900F04BF910BD1CB5044654
:10292000684600F019FCDDE9001001EB4102C2EB42
:10293000C11100EBC10020601CBD10B500BF00F04C
:1029400019FC10B14FF0FF3010BD00BF00BF00F008
:1029500037F910B14FF0FF30F6E700BF00BF00F0CD
:10296000C7F910B14FF0FF30EEE700BF00BF00F035
:102970004DFA10B14FF0FF30E6E700BF00BFFFF7A0
:1029800067FF10B14FF0FF30DEE700BF00BFFFF779
:1029900061F910B14FF0FF30D6E700BF00BFFFF77D
:1029A00009F910B14FF0FF30CEE700BF00BFFFF7CD
:1029B0007DF910B14FF0FF30C6E700BF00BFFFF751
:1029C00073F810B14FF0FF30BEE700BF00BFFFF754
:1029D0008FF810B14FF0FF30B6E700BF00BFFFF730
:1029E0000DF810B14FF0FF30AEE700BF0020ABE7AD
:1029F0002DE9F04105460E461746284600F044F9F9
:102A00000446002D03DA4FF0FF30BDE8F08100BF2F
:102A100014B94FF0FF30F8E700BF00BF206910B9CC
:102A20004FF0FF30F1E700BF39463046226990474A
:102A3000EBE770B50646304600F038F90546002D44
:102A400012DB284600F020F9044600BF14B94FF00D
:102A5000FF3070BD00BF206828B12068804710B1EA
:102A60004FF0FF30F5E700BF2846F2E770B50546A6
:102A7000284600F009F90446002D02DA4FF0FF3035
:102A800070BD00BF14B94FF0FF30F9E700BF00BFC1
:102A9000606910B94FF0FF30F2E700BF606980470E
:102AA000EEE72DE9F04105460E461746284600F0B0
:102AB000EBF80446002D03DA4FF0FF30BDE8F0815B
:102AC00000BF14B94FF0FF30F8E700BF00BF6068E7
:102AD00008B90020F2E700BF3946304662689047E7
:102AE000ECE710B500F022F810BD2DE9F0410546E5
:102AF0000E461746284600F0C7F80446002D03DAB4
:102B00004FF0FF30BDE8F08100BF14B94FF0FF3047
:102B1000F8E700BF00BFA06808B90020F2E700BFD7
:102B200039463046A2689047ECE700001CB5002407
:102B3000684600F011FB104800F03EF9044604B965
:102B40001CBDDDE9001001EB4102C2EBC11100EB3D
:102B5000C1002168884209D3A06850B1D4E90101BD
:102B60008847204602F070F8002402E0204601F079
:102B7000C9FA00BFE4E700006400002070B5044615
:102B80000C2002F08FF8054600BF14B94FF0FF305B
:102B900070BD00BF00BF15B94FF0FF30F8E700BFB0
:102BA00094E8070085E80700284601F0ABFAEFE754
:102BB00010B5024800F0D8F810BD000064000020F5
:102BC00010B5024800F015F910BD000064000020A7
:102BD00070B50446002500BF0CB9681E70BD00BF6B
:102BE0001848006828B9282002F05CF815490860E8
:102BF0000CE0144A1279521C02EB8202D100114AF5
:102C0000106803F0BFF905460E48056000BF0D4887
:102C1000006810B94FF0FF30E0E700BF09490968CC
:102C2000084A127902EB820201EBC20028222146F7
:102C3000FDF79AFA03480079401C02490871002008
:102C4000CCE700005400002070B5002400BF0AE06B
:102C50000C48006804EB840100EBC105A86908B1C9
:102C6000A8698047641C07480079A042F0DC054849
:102C7000006830B10349086801F0E6FF002001490F
:102C8000086070BD54000020014600BF064800796E
:102C9000884201DA0020704700BF0348006801EB5A
:102CA000810200EBC200F6E75400002070B5054633
:102CB000002400BF0DB9601E70BD00BF00240EE0EF
:102CC0000A48006804EB840100EBC10606F11C0110
:102CD0002846FDF79EFA08B92046EDE7641C034834
:102CE0000079A042ECDC4FF0FF30E5E75400002013
:102CF000002002490860087170470000540000205D
:102D00002DE9F04104460E460025002700BF16B904
:102D1000681EBDE8F08100BF00BF14B94FF0FF305E
:102D2000F7E700BF082001F0BDFF054600BF15B959
:102D30004FF0FF30EDE700BF0020286068606E6054
:102D40002860206820B92560012060600020E0E74D
:102D5000276800E03F6838680028FBD13D60606864
:102D6000401C60600020D4E770B50446002500BF19
:102D70000CB9002070BD00BF6068002801DC002095
:102D8000F8E725680FE02E46686820B1686801F012
:102D90005BFF00206860284601F056FF35686068D8
:102DA000401E606000BF15B160680028EBDC0020A9
:102DB0002060606000BFDDE770B504460025002696
:102DC00000BF0CB9002070BD00BF6068002801DCA6
:102DD0000020F8E725682068006820606068401ED1
:102DE000606025B16E68284601F02EFF0025304650
:102DF000E9E7014600BF11B94FF0FF30704700BF4F
:102E000000200860486000BFF8E700000020024989
:102E10000860486070470000C00900202DE9F041BB
:102E20000446884617461E46002500BF14B9681E92
:102E3000BDE8F08100BF0020207307FB06F5C5F355
:102E4000090020B1A80A4FF4806101EB8025B5F597
:102E5000006F03D904202073401FE9E72B46324658
:102E60004146204601F09EFCE2E710B504462046AC
:102E700001F021FD10BD70B504460D4600BF15B927
:102E80004FF0FF3070BD00BF00BF14B94FF0FF30EE
:102E9000F8E700BF002020732846FFF7CAFD206036
:102EA0002068002803DA05202073801FEAE700204D
:102EB000207100BFE6E72DE9F04104460E461546B5
:102EC0001F4600BF1CB94FF0FF30BDE8F08100BFC6
:102ED00000BF15B94FF0FF30F7E700BF00202073A7
:102EE0003B462A463146204601F034FDEDE770B5F9
:102EF00004460E46002500BF0CB9681E70BD00BF19
:102F00003146204601F0C1FC054600BF15B94FF01F
:102F1000FF30F3E700BF0020686000BFEEE72DE957
:102F2000F04104460E4615461F4600BF1CB94FF03F
:102F3000FF30BDE8F08100BF00BF15B94FF0FF3092
:102F4000F7E700BF002020733B462A463146204663
:102F500001F0BEFDEDE72DE9F04107460D460026E4
:102F6000B0463E68D6F8008031E0A6F11804C5F1FD
:102F7000FF30A168884202D20020606024E06078BF
:102F8000012820D1D4E901010844A8421BD8E068F7
:102F900010B1E168606988476560A078002812DD9B
:102FA000A078401EA070A07868B9206910B1D4E95B
:102FB0000410884704F1180002F09EFC204601F03E
:102FC00043FE002400E000BF4646D6F80080BE4223
:102FD000CBD1BDE8F0812DE9F05F05460F46904664
:102FE0009946DDF82CA00026B346002400BF15B991
:102FF000601EBDE8F09F00BF2E68D6F800B009E063
:10300000A6F118010878B84201D10020F1E75E4628
:10301000D6F800B0AE42F3D1202001F043FE0446C2
:1030200000BF14B94FF0FF30E3E700BF2021204676
:10303000FDF7B3F8277084F8028000206070C4F8B0
:103040000C900A98206100206060A0606061BAF175
:10305000000F01D0C4F814A004F1180029684860DA
:1030600001604560286000BF00BF0020C1E700BFCD
:1030700000B9704700BF00BF0060406000BF00BFE4
:10308000F7E72DE9F84304460F4690460025A94688
:103090000020009000BF14B9401EBDE8F88300BFB7
:1030A0002568D5F8009012E0A5F118063078B842EE
:1030B0000AD16846FFF732FC0120707000987060FA
:1030C000C6F808800020E8E74D46D5F80090A542F4
:1030D000EAD14FF0FF30E0E770B504460026002546
:1030E0000EE02668A6F11805286910B1D5E904108C
:1030F0008847304602F000FC284601F0A5FD002577
:1031000020460168814201D1012100E0002100290F
:10311000E7D070BD1CB50F49096800910D49496899
:10312000019115E00B4949680A4A126802EB420313
:10313000C3EBC21201EBC201DDE9003203EB430431
:10314000C4EBC31302EBC3020244914200D31CBD83
:10315000E8E700005C00002000BF00B9704700BF36
:1031600003494968416002490968016000BFF5E709
:103170005C000020002002494860086070470000A1
:103180005C0000201848006800EB4001C1EBC01053
:103190004FF0FF31A1EBC000B0F57A7F03D20020E1
:1031A000114908604860104840680A300E4948607C
:1031B00008464068B0F57A7F14DB084640684FF453
:1031C0007A7190FBF1F008490968084406490860E3
:1031D000084640684FF47A7190FBF1F201FB12004F
:1031E00001494860704700005C00002000BFFEE716
:1031F00000B587B00121042000F052F901218803B5
:1032000000F04EF94FF4806000F002F90E208DF8C6
:10321000180002208DF8190001208DF81A008DF891
:103220001B0006A800F0BCF825208DF8180002202D
:103230008DF8190000208DF81A0001208DF81B0070
:1032400006A800F0ADF801210420FEF773FF482026
:103250008DF817004FF48060ADF8140005A91848E8
:10326000FEF7DCFE03208DF8160018208DF81700FD
:103270004FF40070ADF8140005A91148FEF7CEFE1A
:103280000020ADF80800ADF80A00ADF80C00ADF86C
:1032900010000C20ADF80E004FF4E130019001A9B0
:1032A000084800F0B7FE012240F22441054800F032
:1032B0008BFE43210448FCF770FF07B000BD0000FF
:1032C00000080140003801408800002030B585B07A
:1032D0000546214890F84100012826D11E4890F863
:1032E0004200401C1C4981F84200084690F8420008
:1032F00005281ADB40211948FCF74FFF164890F8C3
:10330000402001461548FCF72FFF134890F8400075
:103310001349087001201349087000200E4981F8F4
:10332000400081F8410081F842006846FFF714FF31
:10333000DDE9001001EB4102C2EBC11100EBC10459
:10334000094804900020039004F10A00029002A8AA
:10335000FFF714FC05B030BD88000020CB00002032
:103360004900002048000020CD32000870B5054615
:103370000E46002400BF0CE0295D074800F0BBFEAC
:1033800000BF8021044800F0E8FD0028F9D0601C4F
:10339000C4B2B442F0DB70BD00480040704700008A
:1033A00070B5002100230F22C47804B3154C2468A3
:1033B00004F4E064C4F5E064210AC1F10403CA40E6
:1033C000447804FA03F184781440214309010E4C37
:1033D0000678A155047804F01F050124AC40057857
:1033E0006D11AD0005F1E025C5F8004109E0047854
:1033F00004F01F050124AC40044D0678761145F811
:10340000264070BD0CED00E000E400E080E100E04B
:1034100002490143024A1160704700000000FA05AA
:103420000CED00E070474FF0FF30704702464FF060
:10343000FF3070474FF0FF3070474FF0FF3070475C
:10344000024600BF12B94FF0FF30704700BF00BF07
:1034500011B94FF0FF30F8E700BF4FF0FF30F4E74D
:1034600029B1064A52690243044B5A6104E0034AF7
:1034700052698243014B5A617047000000100240BC
:1034800029B1064AD2690243044BDA6104E0034AD7
:10349000D2698243014BDA6170470000001002409C
:1034A00029B1064A92690243044B9A6104E0034A37
:1034B00092698243014B9A617047000000100240FC
:1034C00030B500210022002400232D4D6D6805F049
:1034D0000C0121B1042905D0082923D105E0294D8B
:1034E000056022E0274D05601FE0254D6D6805F45D
:1034F0007012234D6D6805F48034022505EB92426D
:103500001CB9214D554305600BE01D4D6D6805F458
:1035100000351DB11C4D5543056002E0194D554362
:10352000056002E0174D056000BF00BF144D6D68D7
:1035300005F0F0010909154D6B5C0568DD4045603B
:103540000F4D6D6805F4E061090A104D6B5C45682C
:10355000DD4085600A4D6D6805F46051C90A0B4D68
:103560006B5C4568DD40C560054D6D6805F4404104
:10357000890B074D6B5CC568B5FBF3F5056130BD84
:103580000010024000127A0000093D001D000020DA
:103590002D00002038B5044601210820FFF780FFE8
:1035A00001218804FFF76CFF18208DF803004FF409
:1035B0008060ADF8000003208DF8020069460B48DA
:1035C000FEF72CFD04208DF803004002ADF800004A
:1035D00069460648FEF722FD2146054800F01AFD1F
:1035E0000121034800F0A4FC38BD0000000C01409C
:1035F00000480040704710B500F002F810BD000010
:103600000CB50020019000903348006840F48030F1
:103610003149086000BF3048006800F40030009075
:103620000198401C0190009818B90198B0F5A06F5E
:10363000F1D12948006800F4003010B10120009059
:1036400001E0002000900098012843D12348006841
:1036500040F01000214908600846006820F003008F
:1036600008600846006840F0020008601A48406898
:10367000194948600846406848600846406840F478
:10368000806048600846406820F47C104860084626
:10369000406840F4E81048600846006840F08070D8
:1036A000086000BF0C48006800F000700028F9D0E6
:1036B0000948406820F00300074948600846406810
:1036C00040F00200486000BF0348406800F00C0072
:1036D0000828F9D10CBD0000001002400020024073
:1036E00010B5FFF74FFD10BD10B5002100200022DE
:1036F000214B5B6803F00C0121B1042906D0082995
:1037000028D107E01D4B1E4C236027E01B4B1C4CAF
:10371000236023E0184B5B6803F47010164B5B6862
:1037200003F48032022303EB904022B9154B43434C
:10373000134C23600DE0104B5B6803F4003323B19E
:10374000104B43430E4C236003E00C4B43430C4CA3
:10375000236003E0094B0A4C236000BF00BF064B07
:103760005B68C3F30313084CE15C054B1B68CB405B
:10377000034C236010BD00000010024000127A00CC
:103780003400002000093D003800002010B5134827
:10379000006840F00100114908600846406810497F
:1037A00008400E494860084600680E4908400B4929
:1037B00008600846006820F48020086008464068D9
:1037C00020F4FE0048604FF41F008860FFF713FFED
:1037D0004FF000600449086010BD00000010024076
:1037E0000000FFF8FFFFF6FE08ED00E010B5002135
:1037F0000B48FEF70FF84FF48030FDF7FDFF084847
:10380000FEF7BAF8C0F1800006490870802004492C
:103810005839C86501210248FDF7FCFF10BD0000C2
:10382000580002400B05002070B505460C460120EB
:103830000B4981F801012246294609488130FCF7ED
:1038400093FC08488464012106484430FDF7E2FFF8
:1038500000BF034890F801010128FAD0204670BD4E
:103860000B0500200000024000B58BB00121084686
:10387000FFF7F6FD00212D48FDF7CCFF2B48FDF7A3
:10388000D5FF2B4800902B4801900020029080200B
:10389000039000200490802005900020069007905F
:1038A00008904FF44050099000200A9069461F4844
:1038B000FEF785F84FF48030FDF79EFF01211B488D
:1038C000FDF7A8FF002119481438FDF7A3FF17489A
:1038D0001438FDF7ABFF1648009016488030019071
:1038E000102002900020039004908020059000207A
:1038F0000690079008904FF44050099000200A90DD
:1039000069460A481438FEF75AF84FF48050FDF71C
:1039100073FF002105481438FDF77CFF01220221C6
:1039200002481438FEF742F80BB000BD58000240C0
:10393000043801400C05002010B540F224410B482A
:1039400000F018FB80B10A4890F8020128B9084835
:103950000078802801DAFFF749FF044800F0C6FB31
:103960000120034981F8020110BD00000038014028
:103970000B05002030B587B004460D460121042018
:10398000FFF78EFD01218803FFF78AFD4FF4806069
:10399000FFF73EFD0E208DF8180002208DF819006B
:1039A00001208DF81A008DF81B0006A8FFF7F8FC1F
:1039B00025208DF8180002208DF8190000208DF8C0
:1039C0001A0001208DF81B0006A8FFF7E9FC012171
:1039D0000420FEF7AFFB48208DF817004FF48060FD
:1039E000ADF8140005A91A48FEF718FB03208DF85E
:1039F000160018208DF817004FF40070ADF8140071
:103A000005A91348FEF70AFB0020ADF80800ADF841
:103A10000A50ADF80C00ADF810000C20ADF80E0007
:103A2000019401A90B4800F0F5FA012240F224416B
:103A3000084800F0C9FAFFF717FF0121054800F018
:103A400077FA0122C021034800F07EFA07B030BDAA
:103A5000000801400038014010B500210B48FDF777
:103A6000D9FE4FF48010FDF7C7FE0848FDF784FF2C
:103A7000C0F1800006490870802004496C3908674D
:103A800001210248FDF7C6FE10BD00006C00024097
:103A90000F06002070B505460C4601200B4981F841
:103AA00001012246294609488130FCF75DFB0848A0
:103AB00004600121001FFDF7ADFE00BF034890F830
:103AC00001010128FAD0204670BD00000F06002039
:103AD0008400024000B58BB001210846FFF7C0FC0E
:103AE00000212D48FDF796FE2B48FDF79FFE2B4841
:103AF00000902B480190002002908020039000202D
:103B000004908020059000200690079008904FF4C4
:103B10004050099000200A9069461F48FDF74FFF6A
:103B20004FF48010FDF768FE01211B48FDF772FE7F
:103B3000002119481430FDF76DFE17481430FDF7C9
:103B400075FE1648009016488030019010200290B3
:103B5000002003900490802005900020069007909C
:103B600008904FF44050099000200A9069460A4896
:103B70001430FDF724FF4FF08070FDF73DFE00216B
:103B800005481430FDF746FE012202210248143098
:103B9000FDF70CFF0BB000BD6C0002400444004078
:103BA0001006002010B540F224410B4800F0E2F965
:103BB00060B10A4890F8020128B9084800788028C6
:103BC00001DAFFF749FF044800F090FA01200349A9
:103BD00081F8020110BD0000004400400F060020E3
:103BE00030B587B004460D4601210420FFF758FC8C
:103BF00001214804FFF744FC4FF48060FFF708FC04
:103C000011208DF8180002208DF8190001208DF880
:103C10001A008DF81B0006A8FFF7C2FB26208DF8BE
:103C2000180002208DF8190000208DF81A000120DC
:103C30008DF81B0006A8FFF7B3FB01210820FEF753
:103C400079FA48208DF817000820ADF8140005A96E
:103C50001948FEF7E3F903208DF8160018208DF8B7
:103C600017000420ADF8140005A91348FEF7D6F993
:103C70000020ADF80800ADF80A50ADF80C00ADF822
:103C800010000C20ADF80E00019401A90B4800F0C3
:103C9000C1F9012240F22441084800F095F9FFF7EC
:103CA00019FF0121054800F043F90122C021034812
:103CB00000F04AF907B030BD000801400044004060
:103CC00010B500210B48FDF7A5FD4FF48070FDF7FE
:103CD00093FD0848FDF750FEC0F1800006490870CA
:103CE000802004493039486301210248FDF792FDE4
:103CF00010BD0000300002401307002070B50546DB
:103D00000C4601200B4981F8010122462946094849
:103D10008130FCF729FA08480462012106481C306A
:103D2000FDF778FD00BF034890F801010128FAD0A3
:103D3000204670BD130700200000024000B58BB084
:103D400001210846FFF78CFB00212D48FDF762FD9D
:103D50002B48FDF76BFD2B4800902B48019000206D
:103D60000290802003900020049080200590002085
:103D70000690079008904FF44050099000200A9058
:103D800069461F48FDF71BFE4FF48070FDF734FDB8
:103D900001211B48FDF73EFD002119481438FDF7AD
:103DA00039FD17481438FDF741FD164800901648B4
:103DB0008030019010200290002003900490802019
:103DC000059000200690079008904FF4405009900D
:103DD00000200A9069460A481438FDF7F0FD1020CB
:103DE000FDF70AFD002106481438FDF713FD0122F6
:103DF000022103481438FDF7D9FD0BB000BD0000C7
:103E000030000240044800401407002010B540F282
:103E100024410B4800F0AEF880B10A4890F8020146
:103E200028B908480078802801DAFFF749FF0448DC
:103E300000F05CF90120034981F8020110BD000087
:103E4000004800401307002030B587B004460D46F7
:103E500001210820FFF724FB01218804FFF710FB54
:103E60004FF48060FFF7D4FA0C208DF81800022080
:103E70008DF8190001208DF81A008DF81B0006A896
:103E8000FFF78EFA27208DF8180002208DF8190010
:103E900000208DF81A0001208DF81B0006A8FFF7FE
:103EA0007FFA01211F48FEF745F948208DF81700D9
:103EB0004FF40060ADF8140005A91B48FEF7AEF8FA
:103EC00003208DF8160018208DF817004FF480603D
:103ED000ADF8140005A91448FEF7A0F80020ADF8CD
:103EE0000800ADF80A50ADF80C00ADF810000C2039
:103EF000ADF80E00019401A90C4800F08BF80122E6
:103F000040F22441094800F05FF8FFF717FF012154
:103F1000064800F00DF80122C021044800F014F812
:103F200007B030BD10001400000C014000480040F4
:103F300021B1828942F40052828104E082894DF6E7
:103F4000FF731A40828170471AB1838A0B438382C0
:103F500002E0838A8B438382704702460020B1F5DA
:103F6000007F00D100BF13880B400BB1012000E09F
:103F70000020704770B50246002400230025002071
:103F800040F66A16B14200D100BFC1F3421501F0FC
:103F90001F03012606FA03F3012D02D1968933404F
:103FA00006E0022D02D1168A334001E0968A3340A2
:103FB0000C12012606FA04F41688344013B10CB131
:103FC000012000E0002070BDF0B50346002400266B
:103FD0000025002040F66A17B94200D100BF1846FC
:103FE000C1F3421401F01F06012707FA06F5012C60
:103FF00001D10C3004E0022C01D1103000E014306B
:104000001AB107682F43076002E00768AF430760F3
:10401000F0BD00002DE9F04786B005460E460024AD
:10402000A24600BFA1460027B08900B100BF2F46BD
:104030002C8A4CF6FF700440F08804432C82AC8933
:104040004EF6F3100440B088318908437189084363
:104050000443AC81AC8A4FF6FF400440B08904436E
:10406000AC8201A8FFF72CFA1F48874202D1DDF885
:1040700010A001E0DDF80CA0A88900F4004040B1D8
:104080000AEBCA0000EB0A1031684900B0FBF1F8F6
:1040900007E00AEBCA0000EB0A1031688900B0FBA8
:1040A000F1F86420B8FBF0F004012009642101FB61
:1040B0001089A88900F4004040B1322000EBC9000B
:1040C000B0FBF1F000F00700044308E0322000EB01
:1040D00009106421B0FBF1F000F00F0004432C81C3
:1040E00006B0BDE8F087000000380140014688882E
:1040F000C0F308007047C1F308028280704700BF18
:10410000FEE7000010B5044621460248FEF7F8FD20
:1041100010BD00006400002010B5FDF733FF002043
:1041200010BD00002DE9F05F06460F4606F0FF08BF
:104130003C464FF0FF3A0025AB46A94600BFB8F118
:10414000030F02DB681EBDE8F09F00BF00BF14B97B
:104150004FF0FF30F7E700BF2568A06800EB050BC4
:104160002448834502D94FF0FF30ECE7002D3ED0C4
:10417000B8F1000F06D0B8F1010F15D0B8F1020F59
:1041800033D120E000BF606810B94FF0FF30DAE7AC
:1041900000BF2846D4E9011200F0ECF9A16888427A
:1041A00001D14FF0000A21E000BF606810B94FF064
:1041B000FF30C8E700BF2846D4E9011200F0ECF94F
:1041C0004FF0000A12E0A0684FEA90292089C0F35E
:1041D000090008B109F101094946284600F09AF999
:1041E000042801D14FF0000A00E000BF00BF504694
:1041F000A9E700002310010800207047F8B5064623
:104200000C46174600250420009000BF0CB9002082
:10421000F8BD00BF0EE021883046FDF793FE009008
:104220009DF80000042801D00020F1E7A81C85B209
:10423000B61CA41CBD4203DA9DF800000428EAD095
:104240002846E5E72DE9F041ADF50A7D05462C4607
:10425000182184A8FBF7A1FF0026002700208390E7
:104260004FF4007103A8FBF798FF00200190029023
:1042700000BF1CB90DF50A7DBDE8F08100BF3EA16D
:1042800084A8FBF7D4FF3FA184A8FBF791FF3EA1D0
:1042900084A8FBF78DFF83AA0121606AFEF7A8FBC3
:1042A0009DF80C02F22800D0E4E701F005FA06467A
:1042B00006B9DFE735A236A1304601F0E3F984AA5A
:1042C00035A1304601F0DEF93548007898B9012073
:1042D0003349087004F12C00FBF794FF30B104F16E
:1042E0002C0230A1304601F0CDF904E030A22DA11E
:1042F000304601F0C7F92F480068401C2D4908607E
:10430000084600682C49B0FBF1F201FB1200294974
:104310000860084629A1026801A800F081FC01AAF2
:1043200027A1304601F0AEF9304601F025FA0746E4
:10433000394603A8FBF77BFF23A103A8FBF738FF4F
:1043400003A8FBF75FFF8046424603A91FA000F0C9
:1043500057FC03A8FBF756FF8046424603A9606A54
:10436000FEF7C3FB384600F06FFC0027304601F033
:10437000C9F9002600BF7DE74A5030313030303176
:10438000000000003A0000004E570000310000001D
:1043900074797065000000006D75496400000000CC
:1043A000040000206C6F636174696F6E0000000090
:1043B0003000000000000020FFFF7F0025640000A7
:1043C00062617474657279000D0A00006A736F6E21
:1043D000206261646479202573206C656E202564F9
:1043E0000A0000000020704770B505460C46012DFC
:1043F00002D0022D11D109E000BF14B94FF0FF30F7
:1044000070BD00BF0748C078207007E00C20FDF7A2
:1044100079FF01200349087100E000BF00BF0020C0
:10442000EEE700004A00002010B586B0FDF7DEFE82
:104430000020FDF767FF01A8FEF78EFEDDE9011001
:1044400001EB4102C2EBC11100EBC1040020059059
:10445000049004F11E00039003A8FEF78FFB0020D8
:1044600006B010BD10B50020FDF758FF03480078D6
:1044700010B94FF0FF3010BD0020FCE74F000020C6
:1044800070B505460C4600BF15B94FF0FF3070BD42
:1044900000BF00BF14B94FF0FF30F8E700BF0F486E
:1044A0000078012816D100200C4908700C480078CB
:1044B000844208DD0A4802780A492846FBF754FE80
:1044C00007480078E3E7224606492846FBF74CFEFA
:1044D0002046DCE74FF0FF30D9E700004F00002016
:1044E000500000205A09002070B505460C4600BF58
:1044F00015B94FF0FF3070BD00BF00BFFF2C02DDCB
:104500004FF0FF30F7E700BFE1B22846FEF792F91F
:104510002046F0E7F8B507460E46042000903446E2
:104520003D4644B1C5F3090028B905EB8420401E7F
:104530000F49884201D90220F8BD0CE02846FDF75A
:10454000B7FC00909DF80000042803D105F58065B4
:10455000641E00E001E0002CF0D100BFFDF7E8FC94
:10456000002080F3108800BF9DF80000E4E7000001
:10457000FFFF010810B503460C46002100BF0CB92F
:10458000002010BD00BF03E013F8010B6054491C6C
:104590009142F9D30846F4E72DE9FE4F06460F464F
:1045A000924654464FF0000B0020029000258046B2
:1045B000042001904FF000090020009000BF0FB9C7
:1045C000BDE8FE8F00BF012080F3108800BFFDF71B
:1045D000D9FC3420FDF766FC4FEA962B4FEA8B2B73
:1045E000C6F3090002900298C0F58065AC4200D87D
:1045F000254653E04FF480622D495846FFF7BAFF35
:104600004FF0000807E017F8081002984044284AC5
:10461000115408F10108A845F5D34FF000092AE02C
:104620003420FDF73FFC5846FDF742FC01909DF811
:104630000400042808D009F101001FFA80F9B9F13B
:104640000A0F00DB18E016E0002000904FF48062B3
:1046500017495846FFF7D2FD00900098B0F5806FDB
:1046600007DA09F101001FFA80F9B9F10A0F01DB3D
:1046700002E001E000BFD3E700BFAC4200D10EE092
:104680000BF5806B002002902F442E44641BB4F580
:10469000806F02D94FF4806500E02546AAE700BF8D
:1046A000FDF746FC002080F3108800BF504687E7E6
:1046B0000B0100200020704710B586B0FEF798FD72
:1046C00001A8FEF749FDDDE9011001EB4102C2EB53
:1046D000C11100EBC104064805900020049004F1CC
:1046E0000A00039003A8FEF749FA002006B010BDA7
:1046F000CD3200080348007810B94FF0FF30704702
:104700000020FCE74800002070B505460C4600BFBD
:1047100015B94FF0FF3070BD00BF00BF14B94FF0A6
:10472000FF30F8E700BF1148007801281AD10020B7
:104730000E49087021462846FBF72FFD0C480078EB
:10474000844208DD0A4802780A492846FBF70CFD36
:1047500007480078DFE7224606492846FBF704FDB4
:104760002046D8E74FF0FF30D5E700004800002092
:1047700049000020CB00002070B505460C4600BF64
:1047800015B94FF0FF3070BD00BF00BFFF2C02DD38
:104790004FF0FF30F7E700BFE1B22846FEF7E6FD35
:1047A0002046F0E72DE9FF5F04460E469046994605
:1047B0004FF0000A00270025AB4600BF0020019003
:1047C000029003900C20009001AB2A460221206841
:1047D000FDF7F8FB28B101202073801E04B0BDE86E
:1047E000F09F9DF80400FE2803D09DF80400FF28E8
:1047F0000AD1BAF1000F02D1681C1FFA80FA9DF8A5
:104800000400FF2800D117E09DF80400FD280CD11A
:10481000DDE9020100EB010BBB4500D95F469DF8C5
:104820000500B04201D10020D8E705F10C0085B2A7
:10483000C5F580600C28C1D800BFB5F5806F04DBDA
:10484000072020734FF0FF30C8E70FB94FF480679F
:104850008DF80560FD208DF804000297CDF80C90CE
:1048600008F1010080B2ADF806000C20AAF10102A7
:10487000009001AB01212068FDF7A4FB18B10620D0
:104880002073C01FAAE70020A8E710B502460B4618
:104890000021002400BF09E0906800EBC1042078EB
:1048A000984201D1204610BD481CC1B210798842FF
:1048B000F2DC0020F7E770B586B00446002500BFA3
:1048C00000200390049005900C20009003AB2A4632
:1048D00002212068FDF776FB18B10120207306B095
:1048E00070BD9DF80C00FF2800D12FE09DF80C0052
:1048F000FD2824D1207920B9082000F0D3F9A06048
:1049000008E02279521CD100A06801F03BFB06466A
:10491000A66000BF00BFA06800B9E0E700BF0020AC
:1049200002909DF80D008DF804002179A06800EB3D
:10493000C100DDE9011206C02079401C207105F19B
:104940000C0085B2C5F580600C28B9D800BF00BF47
:10495000C5E700002DE9F04F85B004468A46904631
:10496000994600260025AB46681E0490002701AA40
:104970005146206800F080F828B102202073C01E44
:1049800005B0BDE8F08F00BFBDF80600401E4845E9
:1049900005D034A000F034F94FF0FF30F0E700BF4D
:1049A000BDF8060000F07EF9054600BF15B94FF0CE
:1049B000FF30E5E700BF51462046FFF766FF074698
:1049C000BDF80610786800FB01F638E0029800EBAD
:1049D000060BBDF806102846FBF7DFFBBDF8060006
:1049E00000902B465A4602212068FDF7EBFA28B1C9
:1049F0004FF0FF3004900120207326E07868401CBF
:104A00007860BDF8060006442878FD2809D1BDF875
:104A10000600421E691C4046FBF7A6FB00200490DE
:104A200013E02878FE2800D109E02878FF2805D176
:104A30004FF0FF3004900720207306E000BF03987A
:104A4000801BBDF806108842C0D800BF0398B04252
:104A500001D807202073284600F0F6F800250498B6
:104A60008EE700006E6F20657175616C206661696C
:104A70006C6564210A000000F8B507460E4614462E
:104A8000002500BF002020606060A0600C2023464D
:104A90002A46022100903846FDF794FA10B14FF0F3
:104AA000FF30F8BD2078FF2800D10DE02078FD28E8
:104AB00004D16078B04201D10020F2E705F10C008A
:104AC00085B2B5F5806FDDDB00BF4FF0FF30E8E762
:104AD0002DE9FF5F04468A46174698460025AB46F7
:104AE0004FF0FF39002601AA51462068FFF7C4FFA6
:104AF00028B102202073C01E04B0BDE8F09F00BFA3
:104B0000BDF80600401E404505D024A000F078F80E
:104B10004FF0FF30F0E700BFBDF8060000F0C2F82C
:104B2000054600BF15B94FF0FF30E5E700BF51461D
:104B30002046FFF7AAFE0646706838B102997068F1
:104B4000401EBDF8062000FB021B03E0706808B998
:104B5000DDF808B0BDF806102846FBF71EFBFD2067
:104B60002870BDF80600421E3946681CFBF7FCFAA7
:104B7000BDF8060000902B465A4603212068FDF739
:104B800021FA8146284600F05FF80025B9F1000FB0
:104B900001D0062020734846AEE700006E6F206506
:104BA0007175616C206661696C6564210A000000A2
:104BB0000020704702460020704700207047002008
:104BC0007047024600BF12B94FF0FF30704700BF78
:104BD00000BF11B94FF0FF30F8E700BF4FF0FF30D2
:104BE000F4E7000010B5044601A000F009F810BD7C
:104BF00054696D65206973206F7665720A00000044
:104C00000FB4054B10B503A9044A029800F04CF903
:104C100010BC5DF814FB0000815800086C000020F7
:104C20000FB4084B10B504A902AA039800F03CF990
:104C3000044602A9002000F0CEFC204610BC5DF81E
:104C400014FB0000D755000830B528B1144C031FE1
:104C5000002021680A4605E0084630BD9A4203D884
:104C600010465268002AF9D1002800D041680BD0C4
:104C70000468A3EB0005A54204D11B681C4403464D
:104C8000046002E0436000E023603AB11C68D51A7A
:104C9000A54203D115682C441C6052685A6030BD8F
:104CA000700000202DE9F04782460F4C10480D4E51
:104CB0000E4F001B4FF0000820F007054FF00109D0
:104CC00000221146504600F0EFFD002802D1306866
:104CD00010B10020BDE8F0873C60C4E90058C6F878
:104CE0000090EDE774000020D4090020700000203F
:104CF000D015002002E008C8121F08C1002AFAD10E
:104D000070477047002001E001C1121F002AFBD14B
:104D1000704700002DE9FF5F82B00021DDE904301B
:104D2000020DDDF840B0034318D044F61050A2F253
:104D3000FF3242431514119801281FD0A5EB0B0038
:104D4000401C5FEA000A4FF000064E4FDFF8389132
:104D5000B046504615D5CAF1000413E0119801245D
:104D60004AA3012801D16FEA0B010298119AC0E908
:104D70000031C0E9024206B0BDE8F09FCBF100006F
:104D8000DFE704460021404A491842EB0450CDE9D0
:104D9000001012E0E00707D032463B464046494645
:104DA000FBF71AFC8046894632463B4610461946B8
:104DB000FBF712FC06460F466410002CEAD1DDE931
:104DC0000401DDE90023BAF1000F06DAFBF704FC69
:104DD00042464B46FBF700FC05E0FBF72FFE424640
:104DE0004B46FBF72BFE04460E460022284BFBF7F2
:104DF0007DFC03D84FF0FF30014607E00022254B31
:104E000020463146FBF773FDFBF793FE102409E0C3
:104E1000002C0ADB0A220023FBF796FC039B3032AE
:104E20001A55641E50EA0102F2D1641C039AC4F1BF
:104E300011031444119A012A03D0012208430DD111
:104E40000AE0084304D000204FF0110B119072E7E4
:104E5000A3EB0B056D1E0DE05B4504DD4FF000027A
:104E600005F1010504E003DA4FF00002A5F10105A8
:104E7000002AECD002981199C0E90231C0E900453E
:104E800079E70000000014400000F03F300000000F
:104E90000000F0430000E03F30380A2801D2012032
:104EA00070470020704700002DE9FF4F95B09B46EA
:104EB0008946064600250FE2252877D1002427469B
:104EC000F84A0121059400E0044316F8013F203B15
:104ED00001FA03F01042F7D130782A2811D06FF090
:104EE0002F033078A0F13002092A16D8059A44F031
:104EF000020402EB820203EB42021044761C05908E
:104F0000EFE759F8042B0592002A03DA504244F4E3
:104F10000054059044F00204761C30782E2816D1F7
:104F200016F8010F44F004042A280DD06FF02F0268
:104F30003078A0F13003092B09D807EB870302EB87
:104F40004303C718761CF3E759F8047B761C3078C6
:104F50006C280FD006DC4C2817D068280DD06A28A2
:104F600014D104E0742810D07A280FD10DE044F455
:104F700000140AE044F4801401E044F44014727810
:104F8000824202D104F58014761C761C30786628A3
:104F90000BD013DC582877D009DC002875D04528C1
:104FA000F6D04628F4D047281AD19DE118E06328AE
:104FB00035D0642879D0652812D195E1702873D056
:104FC00008DC6728F1D069286FD06E280DD06F28D3
:104FD00006D1B5E073282CD0752875D0782874D008
:104FE0005A46179990476D1C75E1C4F30250022888
:104FF00009D003280DD0D9F8001004280DD00D6079
:1050000009F1040967E1D9F80010EA17C1E9005273
:10501000F6E7D9F800100D80F2E70D70F0E719F807
:10502000041B8DF8001000208DF80100EA460120D5
:1050300003E059F804AB4FF0FF3061074FF0000177
:1050400002D40DE008F101018846B9420FDA80452B
:10505000F8DB1AF808100029F4D108E008F1010182
:1050600088468142FADB1AF808100029F6D1059823
:105070005B46A0EB080721463846179A00F094FAE1
:10508000284400EB080507E04DE029E10DE01AF89F
:10509000010B5A4617999047B8F10108F7D25B46C1
:1050A00021463846179A13E142E00A220092C4F3DF
:1050B00002524FF0000A022A08D059F804CB032A02
:1050C0004FEAEC710AD00DE029E02AE009F107016E
:1050D00021F00702F2E802C1914609E00FFA8CFCC8
:1050E0004FEAEC71042A03D14FFA8CFC4FEAEC71C1
:1050F000002907DA0A460021DCF1000C61EB02010D
:105100002D2202E0220504D52B228DF80420012255
:1051100003E0E20701D02022F7E7904659E00A2198
:1051200002E010220DE010214FF0000A00910BE088
:1051300010224FF0000A44F004040827009203E014
:1051400008224FF0000A0092C4F30252022A05D04E
:1051500059F804CB0021032A08D009E009F107011E
:1051600021F00702F2E802C1914605E01FFA8CFC2B
:10517000042A01D10CF0FF0C4FF00008220728D5BB
:10518000702806D0009B83F0100353EA0A0305D071
:105190000EE040228DF80420012208E05CEA0102C2
:1051A00006D030228DF804208DF8050002229046AA
:1051B000009B83F0080353EA0A030AD15CEA010268
:1051C00001D1620705D530228DF804204FF0010887
:1051D0007F1E582804D034A003900EA802900DE042
:1051E00036A0F9E753466046009AFBF7ADFA8446CD
:1051F0000398825C0298401E029002705CEA0100F3
:10520000F0D1029806A9081A00F1200A600702D519
:1052100024F4803400E00127574502DDA7EB0A00A3
:1052200000E0002000EB0A01009005984144401A7C
:105230000590E00306D45B462146179A059800F0D6
:10524000B3F90544002706E001A85A46C05D179946
:1052500090476D1C7F1C4745F6DBE0030CD55B4691
:105260002146179A059800F09FF9054404E0302084
:105270005A46179990476D1C0099481E00900029C6
:10528000F5DC08E0029802995A460078491C029120
:10529000179990476D1CBAF10001AAF1010AF1DCDF
:1052A00065E10000092801003031323334353637EA
:1052B0003839616263646566000000003031323362
:1052C0003435363738394142434445460000000002
:1052D00000F058F90544761C307800287FF4ECADD6
:1052E00019B02846BDE8F08F620700D4062709F1FF
:1052F000070222F0070CFCE80223E14603F0004815
:105300005FEA080C02D00FF2702C0DE05FEA045C3B
:1053100002D50FF2682C07E05FEAC47C02D00FF2DE
:10532000602C01E0AFF2700C4FF0FF3823F0004327
:10533000CDF850C065280CD006DC452809D0462899
:105340001DD047283DD13DE0662818D067287ED182
:1053500038E00021112F01DB112000E0781CCDE99D
:10536000000106A90EA8FFF7D5FCDDE90F010E9A92
:1053700003910021009207F1010A04914DE04FF0E2
:1053800000400097CDE9011006A90EA8FFF7C2FC66
:10539000DDE90F0203920E9B11990022DDF80CA0AB
:1053A0000093049211B9791C00EB010AB7EB0A00D3
:1053B00004D4C0F1FF3007F1010A0490AAEB070002
:1053C000019044E0012F00DA01270021112F01DDB7
:1053D000112000E03846CDE9000106A90EA8FFF72C
:1053E00099FCDDE90F010E9A0391002104910092CE
:1053F000BA4621070CD40399514500DA8A46BAF11E
:10540000010F05DD009AAAF10101515C302908D095
:10541000B84202DA10F1040F06DA0121CDE90110D9
:1054200015E0AAF10101E9E7002805DC049901442F
:105430000491AAEB000102E0411C514500DD8A46BF
:105440000499401A401C01904FF000400290200740
:1054500004D40198504501DBCDF8048000208DF87C
:105460004F0002980DF14F07B0F1004F25D02B20CF
:105470000E9002984FF0020800280CDA4042029089
:105480002D200E9007E00A210298FBF747F93031F2
:10549000029007F8011DB8F10001A8F10108F2DC43
:1054A00002980028EFD1791E0E980870307800F02D
:1054B000200040F0450007F8020D12A8C01B00F1C3
:1054C00007081498007800B1012000EB0A01019848
:1054D00001EBE07105984144401A401E0590E0033D
:1054E00006D45B462146179A059800F05DF80544FE
:1054F0001498007818B15A46179990476D1CE0032C
:1055000024D55B462146179A059800F04DF80544CE
:105510001CE00498002807DBDDE90301884203DD75
:105520000098405C179901E0179930205A4690473F
:10553000049805F10105401C04900198401E01905B
:1055400004D12E205A46179990476D1CBAF10001DC
:10555000AAF1010ADDDC05E017F8010B5A4617999C
:1055600090476D1CB8F10001A8F10108F4DC5B461E
:105570002146179A0598ABE62D0000002B0000008D
:10558000200000002DE9F041044600251E46174684
:10559000880404D405E039462020B0476D1C641E01
:1055A000F9D52846BDE8F0812DE9F04104460025F3
:1055B0001E469046C80301D5302700E02027880406
:1055C00004D505E041463846B0476D1C641EF9D548
:1055D0002846BDE8F0810A68531C0B6010707047C4
:1055E00070B504460E46002506B10CB9002070BD0A
:1055F000A5680DB9A66008E000E02D6828680028BD
:10560000FBD13146284600F0F3FC0120EFE72DE9FD
:10561000F04707460D4614461E46DDF820904FF031
:105620000008C2460FB105B114B90020BDE8F087EB
:10563000B9F1000F07D0284600F0C4F88046E068B2
:1056400040F4007A0CE03146284600F09FF880468E
:10565000B8F1000F01D10020E8E7E06820F4007AFB
:10566000A08900F4007020B9206A10B1206A716826
:105670008847C4F82080C4F80CA021463846FFF7BC
:10568000AFFFD3E7F8B505460E461446204600F0B6
:105690001FF807460020074B3A463146009028463F
:1056A000FFF7B5FF08B13846F8BD384600F02AF8D4
:1056B0000020F9E71000002010B5044800F04EF873
:1056C00004460CB14020E060204610BD10000020D0
:1056D00070B505460A4800F041F804466CB1102048
:1056E000E0600749284600F051F82061206920B9A0
:1056F000204600F007F8002070BD2046FCE70000BF
:105700001000002070B50446002522E02568A0891D
:1057100000F4807020B9A06810B1A068FFF7F2FF14
:10572000A08900F4807028B9206918B10A4A20695C
:1057300051688847A08900F4007028B9206A18B120
:10574000054A206A516888470348416820468847CF
:105750002C46002CDAD170BD1000002070B5044634
:1057600028202168884705461DB128212846FAF7D8
:1057700014FD284670BD000010B50446024A002101
:10578000204600F0D4F810BD100000202DE9F041B3
:1057900004460D460026002714B90020BDE8F0811C
:1057A0002046FAF72FFD461C3046296888470746F1
:1057B0000FB90020F2E7324621463846FAF7D4FC0A
:1057C0003846EBE770472DE9F04104460D460026C8
:1057D00000270CB1206810B90020BDE8F081606896
:1057E00028B1D4E90110884201D30020F5E7B5F1D2
:1057F000004F01D30020F0E7A068401C054460681A
:10580000A84203D3A16820680844E6E7206908B1EC
:105810000020E2E7B5F1804F07D3B5F1004F02D287
:105820006FF0004702E00020D7E76F00206A60B108
:105830003946226A206890470646E6B9E169206841
:105840008847002060602060C7E73846A169884724
:10585000064636B9E169206888470020606020600C
:10586000BBE72EB1A068421C30462168FAF77CFCE9
:10587000E1692068884767602660A0683044ACE72B
:1058800070B504460D46E1B20548FEF734FC00BF92
:1058900040210348FEF761FB0028F9D0204670BD87
:1058A000004800402E2070472DE9F0410B3020F0D9
:1058B0000706104D19E02068B04215D3B0420AD94E
:1058C000871B201DD4F80480FAF74EFCA019C0E90C
:1058D0000078286004E060682860201DFAF744FC26
:1058E000201D2660BDE8F081251D2C68002CE2D12A
:1058F0000020F7E770000020D0E900124A60116034
:1059000000BF002101604160704708B50020009091
:105910006846FBF7BFFC10B14FF0FF3008BD0098A0
:10592000FBF780FD0098FBF783FC0020F6E7F0B55D
:1059300089B007460E461446002524216846FAF72A
:105940002CFC4FF480702168884700904FF48070E1
:105950000190059694E8070006AB07C3009800B9CC
:1059600033E06946384600F08BFA00B92DE068460E
:1059700000F041FBA06850B1029B591C0098A2683E
:105980009047054605B920E0002000901AE0029AF1
:10599000501C21688847054605B916E0DDE901304D
:1059A000401C834201D2019801E00298401C02464B
:1059B00028460099FAF7D8FB00200299685400980D
:1059C00061688847284609B0F0BD009810B100987A
:1059D0006168884715B12846616888470020F2E76A
:1059E0002DE9F04107460C460025A846BE6814B9CB
:1059F0000020BDE8F08101212046FFF7E4FE0546C6
:105A00000DB90020F5E75B202870A068401CA0605D
:105A1000E068401CE06028E02146304600F030FAA3
:105A200008B90020E5E7204600F0E5FA3068D8B173
:105A3000606908B1022000E00120804608F1010100
:105A40002046FFF7C0FE05460DB90020D1E72C2007
:105A500005F8010B606910B1202005F8010B00204A
:105A60002870A0684044A0603668002ED4D102217E
:105A70002046FFF7A8FE05460DB90020B9E75D20D6
:105A800005F8010B00202870E068401EE06001204E
:105A9000AFE700002DE9F04F8BB082460D464FF086
:105AA0000009DAE9067800260024FFF7FBFE8346AA
:105AB0001DB900200BB0BDE8F08F00221346384618
:105AC0004146FAF789FD00221346CDE90001FAF7B5
:105AD000F5FD05D025A104A8FFF7A2F806461BE0B6
